{
  "contractName": "MultiSigWallet",
  "abi": [
    {
      "inputs": [
        {
          "internalType": "uint256",
          "name": "_required",
          "type": "uint256"
        }
      ],
      "stateMutability": "nonpayable",
      "type": "constructor"
    },
    {
      "anonymous": false,
      "inputs": [
        {
          "indexed": true,
          "internalType": "uint256",
          "name": "Id",
          "type": "uint256"
        },
        {
          "indexed": true,
          "internalType": "address",
          "name": "from",
          "type": "address"
        }
      ],
      "name": "Approval",
      "type": "event"
    },
    {
      "anonymous": false,
      "inputs": [
        {
          "indexed": true,
          "internalType": "uint256",
          "name": "Id",
          "type": "uint256"
        },
        {
          "indexed": true,
          "internalType": "address",
          "name": "from",
          "type": "address"
        }
      ],
      "name": "Revoke",
      "type": "event"
    },
    {
      "anonymous": false,
      "inputs": [
        {
          "indexed": true,
          "internalType": "uint256",
          "name": "Id",
          "type": "uint256"
        },
        {
          "indexed": true,
          "internalType": "address",
          "name": "from",
          "type": "address"
        },
        {
          "indexed": true,
          "internalType": "address",
          "name": "to",
          "type": "address"
        },
        {
          "indexed": false,
          "internalType": "uint256",
          "name": "amount",
          "type": "uint256"
        }
      ],
      "name": "Submit",
      "type": "event"
    },
    {
      "anonymous": false,
      "inputs": [
        {
          "indexed": true,
          "internalType": "address",
          "name": "to",
          "type": "address"
        },
        {
          "indexed": false,
          "internalType": "uint256",
          "name": "amount",
          "type": "uint256"
        }
      ],
      "name": "Withdrawal",
      "type": "event"
    },
    {
      "stateMutability": "payable",
      "type": "fallback"
    },
    {
      "inputs": [
        {
          "internalType": "uint256",
          "name": "",
          "type": "uint256"
        }
      ],
      "name": "_Owners",
      "outputs": [
        {
          "internalType": "address",
          "name": "",
          "type": "address"
        }
      ],
      "stateMutability": "view",
      "type": "function"
    },
    {
      "inputs": [
        {
          "internalType": "uint256",
          "name": "",
          "type": "uint256"
        }
      ],
      "name": "_approved",
      "outputs": [
        {
          "internalType": "bool",
          "name": "",
          "type": "bool"
        }
      ],
      "stateMutability": "view",
      "type": "function"
    },
    {
      "inputs": [
        {
          "internalType": "uint256",
          "name": "",
          "type": "uint256"
        }
      ],
      "name": "_executed",
      "outputs": [
        {
          "internalType": "bool",
          "name": "",
          "type": "bool"
        }
      ],
      "stateMutability": "view",
      "type": "function"
    },
    {
      "inputs": [
        {
          "internalType": "address",
          "name": "",
          "type": "address"
        }
      ],
      "name": "_isOwner",
      "outputs": [
        {
          "internalType": "bool",
          "name": "",
          "type": "bool"
        }
      ],
      "stateMutability": "view",
      "type": "function"
    },
    {
      "inputs": [
        {
          "internalType": "uint256",
          "name": "",
          "type": "uint256"
        }
      ],
      "name": "transactions",
      "outputs": [
        {
          "internalType": "uint256",
          "name": "index",
          "type": "uint256"
        },
        {
          "internalType": "address",
          "name": "from",
          "type": "address"
        },
        {
          "internalType": "address",
          "name": "to",
          "type": "address"
        },
        {
          "internalType": "uint256",
          "name": "amount",
          "type": "uint256"
        },
        {
          "internalType": "uint256",
          "name": "approval",
          "type": "uint256"
        }
      ],
      "stateMutability": "view",
      "type": "function"
    },
    {
      "stateMutability": "payable",
      "type": "receive"
    },
    {
      "inputs": [],
      "name": "Deposit",
      "outputs": [],
      "stateMutability": "payable",
      "type": "function"
    },
    {
      "inputs": [
        {
          "internalType": "uint256",
          "name": "_amount",
          "type": "uint256"
        },
        {
          "internalType": "address",
          "name": "_to",
          "type": "address"
        }
      ],
      "name": "submit",
      "outputs": [],
      "stateMutability": "nonpayable",
      "type": "function"
    },
    {
      "inputs": [
        {
          "internalType": "uint256",
          "name": "_index",
          "type": "uint256"
        }
      ],
      "name": "approve",
      "outputs": [],
      "stateMutability": "nonpayable",
      "type": "function"
    },
    {
      "inputs": [
        {
          "internalType": "uint256",
          "name": "_index",
          "type": "uint256"
        }
      ],
      "name": "revoke",
      "outputs": [],
      "stateMutability": "nonpayable",
      "type": "function"
    },
    {
      "inputs": [
        {
          "internalType": "uint256",
          "name": "_index",
          "type": "uint256"
        }
      ],
      "name": "execute",
      "outputs": [],
      "stateMutability": "nonpayable",
      "type": "function"
    },
    {
      "inputs": [
        {
          "internalType": "address",
          "name": "_owner",
          "type": "address"
        }
      ],
      "name": "addOwner",
      "outputs": [],
      "stateMutability": "nonpayable",
      "type": "function"
    },
    {
      "inputs": [
        {
          "internalType": "address",
          "name": "_owner",
          "type": "address"
        },
        {
          "internalType": "uint256",
          "name": "_index",
          "type": "uint256"
        }
      ],
      "name": "removeOwner",
      "outputs": [],
      "stateMutability": "nonpayable",
      "type": "function"
    }
  ],
  "bytecode": "0x60806040523480156200001157600080fd5b506040516200194738038062001947833981810160405281019062000037919062000140565b6001600260003373ffffffffffffffffffffffffffffffffffffffff1673ffffffffffffffffffffffffffffffffffffffff16815260200190815260200160002060006101000a81548160ff0219169083151502179055506007339080600181540180825580915050600190039060005260206000200160009091909190916101000a81548173ffffffffffffffffffffffffffffffffffffffff021916908373ffffffffffffffffffffffffffffffffffffffff160217905550806000819055505062000172565b600080fd5b6000819050919050565b6200011a8162000105565b81146200012657600080fd5b50565b6000815190506200013a816200010f565b92915050565b60006020828403121562000159576200015862000100565b5b6000620001698482850162000129565b91505092915050565b6117c580620001826000396000f3fe6080604052600436106100ab5760003560e01c8063be93bb1811610064578063be93bb18146101ea578063bfd2b3a314610227578063e8befb4b14610250578063ed21248c1461028d578063f532e86a14610297578063fe0d94c1146102c0576100b2565b806320c5429b146100b45780637065cb48146100dd5780639024d282146101065780639ace38c214610143578063b71fbe4b14610184578063b759f954146101c1576100b2565b366100b257005b005b3480156100c057600080fd5b506100db60048036038101906100d691906110eb565b6102e9565b005b3480156100e957600080fd5b5061010460048036038101906100ff9190611176565b610433565b005b34801561011257600080fd5b5061012d600480360381019061012891906110eb565b61057d565b60405161013a91906111be565b60405180910390f35b34801561014f57600080fd5b5061016a600480360381019061016591906110eb565b61059d565b60405161017b9594939291906111f7565b60405180910390f35b34801561019057600080fd5b506101ab60048036038101906101a69190611176565b610623565b6040516101b891906111be565b60405180910390f35b3480156101cd57600080fd5b506101e860048036038101906101e391906110eb565b610643565b005b3480156101f657600080fd5b50610211600480360381019061020c91906110eb565b610819565b60405161021e91906111be565b60405180910390f35b34801561023357600080fd5b5061024e6004803603810190610249919061124a565b610839565b005b34801561025c57600080fd5b50610277600480360381019061027291906110eb565b610a8a565b604051610284919061128a565b60405180910390f35b610295610ac9565b005b3480156102a357600080fd5b506102be60048036038101906102b991906112a5565b610acb565b005b3480156102cc57600080fd5b506102e760048036038101906102e291906110eb565b610dc0565b005b80600115156005600083815260200190815260200160002060009054906101000a900460ff1615151461031b57600080fd5b81600015156004600083815260200190815260200160002060009054906101000a900460ff16151514610383576040517f08c379a000000000000000000000000000000000000000000000000000000000815260040161037a90611342565b60405180910390fd5b6006838154811061039757610396611362565b5b906000526020600020906005020160040160008154809291906103b9906113c0565b919050555060006003600085815260200190815260200160002060006101000a81548160ff0219169083151502179055503373ffffffffffffffffffffffffffffffffffffffff16837fd5d64031e0f55cf42bc3b7d0462f8404a4d63f7ccf84be9510cd6a5300552e4260405160405180910390a3505050565b600260003373ffffffffffffffffffffffffffffffffffffffff1673ffffffffffffffffffffffffffffffffffffffff16815260200190815260200160002060009054906101000a900460ff166104bf576040517f08c379a00000000000000000000000000000000000000000000000000000000081526004016104b690611436565b60405180910390fd5b6007819080600181540180825580915050600190039060005260206000200160009091909190916101000a81548173ffffffffffffffffffffffffffffffffffffffff021916908373ffffffffffffffffffffffffffffffffffffffff1602179055506001600260008373ffffffffffffffffffffffffffffffffffffffff1673ffffffffffffffffffffffffffffffffffffffff16815260200190815260200160002060006101000a81548160ff02191690831515021790555050565b60036020528060005260406000206000915054906101000a900460ff1681565b600681815481106105ad57600080fd5b90600052602060002090600502016000915090508060000154908060010160009054906101000a900473ffffffffffffffffffffffffffffffffffffffff16908060020160009054906101000a900473ffffffffffffffffffffffffffffffffffffffff16908060030154908060040154905085565b60026020528060005260406000206000915054906101000a900460ff1681565b600260003373ffffffffffffffffffffffffffffffffffffffff1673ffffffffffffffffffffffffffffffffffffffff16815260200190815260200160002060009054906101000a900460ff166106cf576040517f08c379a00000000000000000000000000000000000000000000000000000000081526004016106c690611436565b60405180910390fd5b80600115156005600083815260200190815260200160002060009054906101000a900460ff1615151461070157600080fd5b81600015156003600083815260200190815260200160002060009054906101000a900460ff16151514610769576040517f08c379a0000000000000000000000000000000000000000000000000000000008152600401610760906114a2565b60405180910390fd5b6006838154811061077d5761077c611362565b5b9060005260206000209060050201600401600081548092919061079f906114c2565b919050555060016003600085815260200190815260200160002060006101000a81548160ff0219169083151502179055503373ffffffffffffffffffffffffffffffffffffffff16837f5c5eba18d22f000d8abde369b6bed499233b5f42bad94d08eff5b60de7e663c060405160405180910390a3505050565b60046020528060005260406000206000915054906101000a900460ff1681565b600260003373ffffffffffffffffffffffffffffffffffffffff1673ffffffffffffffffffffffffffffffffffffffff16815260200190815260200160002060009054906101000a900460ff166108c5576040517f08c379a00000000000000000000000000000000000000000000000000000000081526004016108bc90611436565b60405180910390fd5b60016007805490501161090d576040517f08c379a000000000000000000000000000000000000000000000000000000000815260040161090490611557565b60405180910390fd5b6000600260008473ffffffffffffffffffffffffffffffffffffffff1673ffffffffffffffffffffffffffffffffffffffff16815260200190815260200160002060006101000a81548160ff02191690831515021790555060008190505b600160078054905061097d9190611577565b811015610a8557600760018261099391906115ab565b815481106109a4576109a3611362565b5b9060005260206000200160009054906101000a900473ffffffffffffffffffffffffffffffffffffffff16600782815481106109e3576109e2611362565b5b9060005260206000200160006101000a81548173ffffffffffffffffffffffffffffffffffffffff021916908373ffffffffffffffffffffffffffffffffffffffff1602179055506007805480610a3d57610a3c611601565b5b6001900381819060005260206000200160006101000a81549073ffffffffffffffffffffffffffffffffffffffff021916905590558080610a7d906114c2565b91505061096b565b505050565b60078181548110610a9a57600080fd5b906000526020600020016000915054906101000a900473ffffffffffffffffffffffffffffffffffffffff1681565b565b600260003373ffffffffffffffffffffffffffffffffffffffff1673ffffffffffffffffffffffffffffffffffffffff16815260200190815260200160002060009054906101000a900460ff16610b57576040517f08c379a0000000000000000000000000000000000000000000000000000000008152600401610b4e90611436565b60405180910390fd5b47821115610b9a576040517f08c379a0000000000000000000000000000000000000000000000000000000008152600401610b919061167c565b60405180910390fd5b610ba2611055565b60015481600001818152505033816020019073ffffffffffffffffffffffffffffffffffffffff16908173ffffffffffffffffffffffffffffffffffffffff168152505081816040019073ffffffffffffffffffffffffffffffffffffffff16908173ffffffffffffffffffffffffffffffffffffffff168152505082816060018181525050600081608001818152505060068190806001815401808255809150506001900390600052602060002090600502016000909190919091506000820151816000015560208201518160010160006101000a81548173ffffffffffffffffffffffffffffffffffffffff021916908373ffffffffffffffffffffffffffffffffffffffff16021790555060408201518160020160006101000a81548173ffffffffffffffffffffffffffffffffffffffff021916908373ffffffffffffffffffffffffffffffffffffffff160217905550606082015181600301556080820151816004015550508173ffffffffffffffffffffffffffffffffffffffff163373ffffffffffffffffffffffffffffffffffffffff166001547fc7b679e84d58a9a6d68a05757595dd545527b2c7e1fd2c11fc458fb7ea2337a586604051610d6d919061169c565b60405180910390a4600160056000600154815260200190815260200160002060006101000a81548160ff02191690831515021790555060016000815480929190610db6906114c2565b9190505550505050565b80600115156005600083815260200190815260200160002060009054906101000a900460ff16151514610df257600080fd5b81600015156004600083815260200190815260200160002060009054906101000a900460ff16151514610e5a576040517f08c379a0000000000000000000000000000000000000000000000000000000008152600401610e5190611342565b60405180910390fd5b610e6383610ea3565b15610e9e57610e7183610ee1565b60016004600085815260200190815260200160002060006101000a81548160ff0219169083151502179055505b505050565b6000805460068381548110610ebb57610eba611362565b5b9060005260206000209060050201600401541015610ed857600080fd5b60019050919050565b600060068281548110610ef757610ef6611362565b5b9060005260206000209060050201600301549050600060068381548110610f2157610f20611362565b5b906000526020600020906005020160020160009054906101000a900473ffffffffffffffffffffffffffffffffffffffff16905060008173ffffffffffffffffffffffffffffffffffffffff1683604051610f7b9061170e565b60006040518083038185875af1925050503d8060008114610fb8576040519150601f19603f3d011682016040523d82523d6000602084013e610fbd565b606091505b5050905080611001576040517f08c379a0000000000000000000000000000000000000000000000000000000008152600401610ff89061176f565b60405180910390fd5b8173ffffffffffffffffffffffffffffffffffffffff167f7fcf532c15f0a6db0bd6d0e038bea71d30d808c7d98cb3bf7268a95bf5081b6584604051611047919061169c565b60405180910390a250505050565b6040518060a0016040528060008152602001600073ffffffffffffffffffffffffffffffffffffffff168152602001600073ffffffffffffffffffffffffffffffffffffffff16815260200160008152602001600081525090565b600080fd5b6000819050919050565b6110c8816110b5565b81146110d357600080fd5b50565b6000813590506110e5816110bf565b92915050565b600060208284031215611101576111006110b0565b5b600061110f848285016110d6565b91505092915050565b600073ffffffffffffffffffffffffffffffffffffffff82169050919050565b600061114382611118565b9050919050565b61115381611138565b811461115e57600080fd5b50565b6000813590506111708161114a565b92915050565b60006020828403121561118c5761118b6110b0565b5b600061119a84828501611161565b91505092915050565b60008115159050919050565b6111b8816111a3565b82525050565b60006020820190506111d360008301846111af565b92915050565b6111e2816110b5565b82525050565b6111f181611138565b82525050565b600060a08201905061120c60008301886111d9565b61121960208301876111e8565b61122660408301866111e8565b61123360608301856111d9565b61124060808301846111d9565b9695505050505050565b60008060408385031215611261576112606110b0565b5b600061126f85828601611161565b9250506020611280858286016110d6565b9150509250929050565b600060208201905061129f60008301846111e8565b92915050565b600080604083850312156112bc576112bb6110b0565b5b60006112ca858286016110d6565b92505060206112db85828601611161565b9150509250929050565b600082825260208201905092915050565b7f547820616c726561647920657865637574656400000000000000000000000000600082015250565b600061132c6013836112e5565b9150611337826112f6565b602082019050919050565b6000602082019050818103600083015261135b8161131f565b9050919050565b7f4e487b7100000000000000000000000000000000000000000000000000000000600052603260045260246000fd5b7f4e487b7100000000000000000000000000000000000000000000000000000000600052601160045260246000fd5b60006113cb826110b5565b915060008214156113df576113de611391565b5b600182039050919050565b7f55736572206973206e6f7420616e206f776e6572000000000000000000000000600082015250565b60006114206014836112e5565b915061142b826113ea565b602082019050919050565b6000602082019050818103600083015261144f81611413565b9050919050565b7f547820616c726561647920617070726f76656400000000000000000000000000600082015250565b600061148c6013836112e5565b915061149782611456565b602082019050919050565b600060208201905081810360008301526114bb8161147f565b9050919050565b60006114cd826110b5565b91507fffffffffffffffffffffffffffffffffffffffffffffffffffffffffffffffff821415611500576114ff611391565b5b600182019050919050565b7f5468657265206d7573742062652061746c65617374206f6e65206f776e657200600082015250565b6000611541601f836112e5565b915061154c8261150b565b602082019050919050565b6000602082019050818103600083015261157081611534565b9050919050565b6000611582826110b5565b915061158d836110b5565b9250828210156115a05761159f611391565b5b828203905092915050565b60006115b6826110b5565b91506115c1836110b5565b9250827fffffffffffffffffffffffffffffffffffffffffffffffffffffffffffffffff038211156115f6576115f5611391565b5b828201905092915050565b7f4e487b7100000000000000000000000000000000000000000000000000000000600052603160045260246000fd5b7f696e76616c696420616d6f756e74000000000000000000000000000000000000600082015250565b6000611666600e836112e5565b915061167182611630565b602082019050919050565b6000602082019050818103600083015261169581611659565b9050919050565b60006020820190506116b160008301846111d9565b92915050565b600081905092915050565b7f2000000000000000000000000000000000000000000000000000000000000000600082015250565b60006116f86001836116b7565b9150611703826116c2565b600182019050919050565b6000611719826116eb565b9150819050919050565b7f5769746864726177616c20756e7375636365737366756c000000000000000000600082015250565b60006117596017836112e5565b915061176482611723565b602082019050919050565b600060208201905081810360008301526117888161174c565b905091905056fea2646970667358221220ca9ba748c3e16675bfc65e121675ef67b0cb2ff48b094d6d22c79ce7a44712aa64736f6c634300080c0033",
  "immutableReferences": {},
  "source": "// SPDX-License-Identifier: MIT\npragma solidity >=0.4.22 <0.9.0;\n\ncontract MultiSigWallet {\n\n  uint256 private required;\n  uint256 private Id;\n\n  mapping (address => bool) public _isOwner;\n  mapping (uint256 => bool) public _approved;\n  mapping (uint256 => bool) public _executed;\n  mapping (uint256 => bool) private _transactions;\n\n  modifier onlyOwner() {\n    require(_isOwner[msg.sender], \"User is not an owner\");\n    _;\n  }\n\n  modifier notApproved(uint256 index) {\n    require(_approved[index] == false, \"Tx already approved\");\n    _;\n  }\n\n  modifier txExist(uint256 index) {\n    require(_transactions[index] == true );\n    _;\n  }\n\n  modifier notExecuted(uint256 index) {\n    require(_executed[index] == false, \"Tx already executed\");\n    _;\n  }\n\n  event Submit(uint256 indexed Id, address indexed from, address indexed to, uint256 amount);\n  event Approval(uint256 indexed Id, address indexed from);\n  event Revoke(uint256 indexed Id, address indexed from);\n  event Withdrawal(address indexed to, uint256 amount);\n\n  struct Transaction {\n    uint256 index;\n    address from;\n    address to;\n    uint256 amount;\n    uint256 approval;\n  }\n\n  Transaction[] public transactions;\n  address[] public _Owners;\n\n  constructor(uint256 _required) {\n    _isOwner[msg.sender] = true;\n    _Owners.push(msg.sender);\n    required = _required;\n  }\n\n  function Deposit()\n  public\n  payable{\n\n  }\n\n  function submit(uint256 _amount, address _to)\n  public\n  onlyOwner{\n    require(_amount <= address(this).balance, \"invalid amount\");\n    Transaction memory transaction;\n    transaction.index = Id;\n    transaction.from = msg.sender;\n    transaction.to = _to;\n    transaction.amount = _amount;\n    transaction.approval = 0;\n\n    transactions.push(transaction);\n    emit Submit(Id, msg.sender, _to, _amount);\n    _transactions[Id] = true;\n    Id++;\n  }\n\n  function approve(uint256 _index)\n  public\n  onlyOwner\n  txExist(_index)\n  notApproved(_index) {\n    transactions[_index].approval++;\n    _approved[_index] = true;\n    emit Approval(_index, msg.sender);\n  }\n\n  function revoke(uint256 _index)\n  public\n  txExist(_index)\n  notExecuted(_index) {\n    transactions[_index].approval--;\n    _approved[_index] = false;\n    emit Revoke(_index, msg.sender);\n  }\n\n  function execute(uint256 _index)\n  public\n  txExist(_index)\n  notExecuted(_index) {\n    if(getApprovalCount(_index)){\n      _withdraw(_index);\n      _executed[_index] = true;\n\n    }\n\n  }\n\n  function _withdraw(uint256 _index)\n  internal {\n    uint256 amount = transactions[_index].amount;\n    address to = transactions[_index].to;\n    (bool success, ) = to.call{value: amount}(\" \");\n    require(success, \"Withdrawal unsuccessful\");\n    emit Withdrawal(to, amount);\n  }\n\n  function addOwner(address _owner)\n  public\n  onlyOwner {\n    _Owners.push(_owner);\n    _isOwner[_owner] = true;\n  }\n\n  function removeOwner(address _owner, uint256 _index)\n  public\n  onlyOwner {\n    require(_Owners.length > 1, \"There must be atleast one owner\");\n    _isOwner[_owner] = false;\n\n    for(uint256 i = _index; i < _Owners.length - 1; i++){\n      _Owners[i] = _Owners[i+1];\n      _Owners.pop();\n    }\n  }\n\n  function getApprovalCount(uint256 _index) internal returns (bool) {\n    require(transactions[_index].approval >= required);\n    return true;\n  }\n\n  receive() external payable {}\n  fallback() external payable {}\n}\n",
  "sourcePath": "C:\\Users\\ojphi\\Desktop\\MultiSigWallet\\contracts\\MultiSigWallet.sol",
  "compiler": {
    "name": "solc",
    "version": "0.8.12+commit.f00d7308.Emscripten.clang"
  },
  "schemaVersion": "3.4.5",
  "updatedAt": "2022-04-29T14:03:37.584Z",
  "devdoc": {
    "kind": "dev",
    "methods": {},
    "version": 1
  },
  "userdoc": {
    "kind": "user",
    "methods": {},
    "version": 1
  }
}